{
  "contractName": "Parameters",
  "abi": [
    {
      "constant": false,
      "inputs": [
        {
          "name": "_ttl",
          "type": "uint256"
        }
      ],
      "name": "setTTL",
      "outputs": [],
      "payable": false,
      "type": "function",
      "stateMutability": "nonpayable"
    },
    {
      "constant": true,
      "inputs": [],
      "name": "owner",
      "outputs": [
        {
          "name": "",
          "type": "address"
        }
      ],
      "payable": false,
      "type": "function",
      "stateMutability": "view"
    },
    {
      "constant": true,
      "inputs": [
        {
          "name": "_name",
          "type": "string"
        }
      ],
      "name": "getParameter",
      "outputs": [
        {
          "name": "",
          "type": "string"
        }
      ],
      "payable": false,
      "type": "function",
      "stateMutability": "view"
    },
    {
      "constant": false,
      "inputs": [
        {
          "name": "_name",
          "type": "string"
        },
        {
          "name": "_ipfsValue",
          "type": "string"
        }
      ],
      "name": "setIPFSParameter",
      "outputs": [],
      "payable": false,
      "type": "function",
      "stateMutability": "nonpayable"
    },
    {
      "constant": false,
      "inputs": [
        {
          "name": "_name",
          "type": "string"
        },
        {
          "name": "_value",
          "type": "string"
        }
      ],
      "name": "setParameter",
      "outputs": [],
      "payable": false,
      "type": "function",
      "stateMutability": "nonpayable"
    },
    {
      "constant": false,
      "inputs": [
        {
          "name": "newOwner",
          "type": "address"
        }
      ],
      "name": "transferOwnership",
      "outputs": [],
      "payable": false,
      "type": "function",
      "stateMutability": "nonpayable"
    },
    {
      "inputs": [
        {
          "name": "_defaultTTL",
          "type": "uint256"
        }
      ],
      "payable": false,
      "type": "constructor",
      "stateMutability": "nonpayable"
    },
    {
      "anonymous": false,
      "inputs": [
        {
          "indexed": false,
          "name": "name",
          "type": "string"
        },
        {
          "indexed": false,
          "name": "value",
          "type": "string"
        }
      ],
      "name": "ParameterSet",
      "type": "event"
    },
    {
      "anonymous": false,
      "inputs": [
        {
          "indexed": true,
          "name": "previousOwner",
          "type": "address"
        },
        {
          "indexed": true,
          "name": "newOwner",
          "type": "address"
        }
      ],
      "name": "OwnershipTransferred",
      "type": "event"
    },
    {
      "anonymous": false,
      "inputs": [
        {
          "indexed": false,
          "name": "PubKey",
          "type": "address"
        },
        {
          "indexed": false,
          "name": "IPFSHash",
          "type": "string"
        },
        {
          "indexed": false,
          "name": "ttl",
          "type": "uint256"
        }
      ],
      "name": "HashAdded",
      "type": "event"
    },
    {
      "anonymous": false,
      "inputs": [
        {
          "indexed": false,
          "name": "PubKey",
          "type": "address"
        },
        {
          "indexed": false,
          "name": "IPFSHash",
          "type": "string"
        }
      ],
      "name": "HashRemoved",
      "type": "event"
    }
  ],
  "bytecode": "0x6060604052341561000f57600080fd5b60405160208061099883398101604052808051906020019091905050336000806101000a81548173ffffffffffffffffffffffffffffffffffffffff021916908373ffffffffffffffffffffffffffffffffffffffff1602179055508060028190555050610916806100826000396000f300606060405260043610610078576000357c0100000000000000000000000000000000000000000000000000000000900463ffffffff1680636c7419501461007d5780638da5cb5b146100a05780639e647aac146100f5578063c9ebeba6146101cb578063e1332ab91461020d578063f2fde38b1461024f575b600080fd5b341561008857600080fd5b61009e6004808035906020019091905050610288565b005b34156100ab57600080fd5b6100b36102ed565b604051808273ffffffffffffffffffffffffffffffffffffffff1673ffffffffffffffffffffffffffffffffffffffff16815260200191505060405180910390f35b341561010057600080fd5b610150600480803590602001908201803590602001908080601f01602080910402602001604051908101604052809392919081815260200183838082843782019150505050505091905050610312565b6040518080602001828103825283818151815260200191508051906020019080838360005b83811015610190578082015181840152602081019050610175565b50505050905090810190601f1680156101bd5780820380516001836020036101000a031916815260200191505b509250505060405180910390f35b34156101d657600080fd5b61020b600480803590602001908201803590602001919091929080359060200190820180359060200191909192905050610425565b005b341561021857600080fd5b61024d6004808035906020019082018035906020019190919290803590602001908201803590602001919091929050506105d3565b005b341561025a57600080fd5b610286600480803573ffffffffffffffffffffffffffffffffffffffff169060200190919050506106dc565b005b6000809054906101000a900473ffffffffffffffffffffffffffffffffffffffff1673ffffffffffffffffffffffffffffffffffffffff163373ffffffffffffffffffffffffffffffffffffffff161415156102e357600080fd5b8060028190555050565b6000809054906101000a900473ffffffffffffffffffffffffffffffffffffffff1681565b61031a610831565b6001826040518082805190602001908083835b602083101515610352578051825260208201915060208101905060208303925061032d565b6001836020036101000a03801982511681845116808217855250505050505090500191505090815260200160405180910390208054600181600116156101000203166002900480601f0160208091040260200160405190810160405280929190818152602001828054600181600116156101000203166002900480156104195780601f106103ee57610100808354040283529160200191610419565b820191906000526020600020905b8154815290600101906020018083116103fc57829003601f168201915b50505050509050919050565b6000809054906101000a900473ffffffffffffffffffffffffffffffffffffffff1673ffffffffffffffffffffffffffffffffffffffff163373ffffffffffffffffffffffffffffffffffffffff1614151561048057600080fd5b3073ffffffffffffffffffffffffffffffffffffffff1663e1332ab9858585856040518563ffffffff167c010000000000000000000000000000000000000000000000000000000002815260040180806020018060200183810383528787828181526020019250808284378201915050838103825285858281815260200192508082843782019150509650505050505050600060405180830381600087803b151561052a57600080fd5b6102c65a03f1151561053b57600080fd5b5050507f860caf696acfb28a58ef6f4a46b7fc197a29e60739a95d692ac1522e9ea11925308383600254604051808573ffffffffffffffffffffffffffffffffffffffff1673ffffffffffffffffffffffffffffffffffffffff16815260200180602001838152602001828103825285858281815260200192508082843782019150509550505050505060405180910390a150505050565b6000809054906101000a900473ffffffffffffffffffffffffffffffffffffffff1673ffffffffffffffffffffffffffffffffffffffff163373ffffffffffffffffffffffffffffffffffffffff1614151561062e57600080fd5b7f52416347a4aa65bcdcfb6915eafb20dc1aad86e01ec22e5bd8cc35b149714c63848484846040518080602001806020018381038352878782818152602001925080828437820191505083810382528585828181526020019250808284378201915050965050505050505060405180910390a181816001868660405180838380828437820191505092505050908152602001604051809103902091906106d5929190610845565b5050505050565b6000809054906101000a900473ffffffffffffffffffffffffffffffffffffffff1673ffffffffffffffffffffffffffffffffffffffff163373ffffffffffffffffffffffffffffffffffffffff1614151561073757600080fd5b600073ffffffffffffffffffffffffffffffffffffffff168173ffffffffffffffffffffffffffffffffffffffff161415151561077357600080fd5b8073ffffffffffffffffffffffffffffffffffffffff166000809054906101000a900473ffffffffffffffffffffffffffffffffffffffff1673ffffffffffffffffffffffffffffffffffffffff167f8be0079c531659141344cd1fd0a4f28419497f9722a3daafe3b4186f6b6457e060405160405180910390a3806000806101000a81548173ffffffffffffffffffffffffffffffffffffffff021916908373ffffffffffffffffffffffffffffffffffffffff16021790555050565b602060405190810160405280600081525090565b828054600181600116156101000203166002900490600052602060002090601f016020900481019282601f1061088657803560ff19168380011785556108b4565b828001600101855582156108b4579182015b828111156108b3578235825591602001919060010190610898565b5b5090506108c191906108c5565b5090565b6108e791905b808211156108e35760008160009055506001016108cb565b5090565b905600a165627a7a723058200f072b65a15896fdc15ce0e1345e30189fcfe9d86bd1452a9b71aa7e57d8df030029",
  "source": "pragma solidity ^0.4.15;\n\nimport './Ownable.sol';\nimport \"./IPFSEvents.sol\";\n\ncontract Parameters is IPFSEvents,Ownable {\n\tmapping (string => string) parameters;\n\n\tevent ParameterSet(string name, string value);\n\tuint defaultTTL;\n\n\tfunction Parameters(uint _defaultTTL){\n\t\tdefaultTTL = _defaultTTL;\n\t}\n\n  \tfunction setTTL(uint _ttl) onlyOwner {\n    \tdefaultTTL = _ttl;\n  \t}\n\n\tfunction setParameter(string _name, string _value) onlyOwner external {\n\t\tParameterSet(_name,_value);\n\t\tparameters[_name] = _value;\n\t}\n\n\tfunction setIPFSParameter(string _name, string _ipfsValue) onlyOwner external {\n\t\tthis.setParameter(_name,_ipfsValue);\n\t\tHashAdded(this,_ipfsValue,defaultTTL);\n\t}\n\n  function getParameter(string _name) constant returns (string){\n    return parameters[_name];\n  }\n\n}\n",
  "sourcePath": "/Users/sponnet/Documents/projects/sc-dappcontracts-sponnet/contracts/Parameters.sol",
  "compiler": {
    "name": "solc",
    "version": "0.4.18+commit.9cf6e910.Emscripten.clang"
  },
  "schemaVersion": "1.0.1",
  "updatedAt": "2017-11-22T15:20:31.362Z"
}